{
  "contractName": "Journeys",
  "abi": [
    {
      "constant": true,
      "inputs": [
        {
          "name": "",
          "type": "address"
        }
      ],
      "name": "journeysIds",
      "outputs": [
        {
          "name": "",
          "type": "uint256"
        }
      ],
      "payable": false,
      "stateMutability": "view",
      "type": "function"
    },
    {
      "constant": true,
      "inputs": [
        {
          "name": "",
          "type": "uint256"
        }
      ],
      "name": "journeys",
      "outputs": [
        {
          "name": "from",
          "type": "string"
        },
        {
          "name": "to",
          "type": "string"
        },
        {
          "name": "endingFare",
          "type": "string"
        },
        {
          "name": "walletAddress",
          "type": "address"
        },
        {
          "name": "createdAt",
          "type": "uint256"
        },
        {
          "name": "updatedAt",
          "type": "uint256"
        }
      ],
      "payable": false,
      "stateMutability": "view",
      "type": "function"
    },
    {
      "inputs": [],
      "payable": false,
      "stateMutability": "nonpayable",
      "type": "constructor"
    },
    {
      "anonymous": false,
      "inputs": [
        {
          "indexed": false,
          "name": "id",
          "type": "uint256"
        }
      ],
      "name": "newJourneyRegistered",
      "type": "event"
    },
    {
      "anonymous": false,
      "inputs": [
        {
          "indexed": false,
          "name": "id",
          "type": "uint256"
        }
      ],
      "name": "journeyUpdateEvent",
      "type": "event"
    },
    {
      "constant": false,
      "inputs": [
        {
          "name": "from",
          "type": "string"
        },
        {
          "name": "to",
          "type": "string"
        },
        {
          "name": "endingFare",
          "type": "string"
        }
      ],
      "name": "registerJourney",
      "outputs": [
        {
          "name": "",
          "type": "uint256"
        }
      ],
      "payable": false,
      "stateMutability": "nonpayable",
      "type": "function"
    },
    {
      "constant": false,
      "inputs": [
        {
          "name": "newFrom",
          "type": "string"
        },
        {
          "name": "newTo",
          "type": "string"
        },
        {
          "name": "newendingFare",
          "type": "string"
        }
      ],
      "name": "updateJourney",
      "outputs": [
        {
          "name": "",
          "type": "uint256"
        }
      ],
      "payable": false,
      "stateMutability": "nonpayable",
      "type": "function"
    },
    {
      "constant": true,
      "inputs": [
        {
          "name": "id",
          "type": "uint256"
        }
      ],
      "name": "getJourneyById",
      "outputs": [
        {
          "name": "",
          "type": "uint256"
        },
        {
          "name": "",
          "type": "string"
        },
        {
          "name": "",
          "type": "string"
        },
        {
          "name": "",
          "type": "string"
        },
        {
          "name": "",
          "type": "address"
        },
        {
          "name": "",
          "type": "uint256"
        },
        {
          "name": "",
          "type": "uint256"
        }
      ],
      "payable": false,
      "stateMutability": "view",
      "type": "function"
    },
    {
      "constant": true,
      "inputs": [],
      "name": "getOwnProfile",
      "outputs": [
        {
          "name": "",
          "type": "uint256"
        },
        {
          "name": "",
          "type": "string"
        },
        {
          "name": "",
          "type": "string"
        },
        {
          "name": "",
          "type": "string"
        },
        {
          "name": "",
          "type": "address"
        },
        {
          "name": "",
          "type": "uint256"
        },
        {
          "name": "",
          "type": "uint256"
        }
      ],
      "payable": false,
      "stateMutability": "view",
      "type": "function"
    },
    {
      "constant": true,
      "inputs": [],
      "name": "isRegistered",
      "outputs": [
        {
          "name": "",
          "type": "bool"
        }
      ],
      "payable": false,
      "stateMutability": "view",
      "type": "function"
    },
    {
      "constant": true,
      "inputs": [],
      "name": "totalJourneys",
      "outputs": [
        {
          "name": "",
          "type": "uint256"
        }
      ],
      "payable": false,
      "stateMutability": "view",
      "type": "function"
    }
  ],
  "bytecode": "0x60806040523480156200001157600080fd5b50620000606000602060405190810160405280600081525060206040519081016040528060008152506020604051908101604052806000815250620002b0640100000000026401000000009004565b5062000123653333333333336040805190810160405280601a81526020017f50696e6e657220556e64657267726f756e642053746174696f6e0000000000008152506040805190810160405280601b81526020017f4b696c6275726e20556e64657267726f756e642053746174696f6e00000000008152506040805190810160405280600381526020017f3539300000000000000000000000000000000000000000000000000000000000815250620002b0640100000000026401000000009004565b50620001e6651111111111116040805190810160405280601d81526020017f57696c6c657364656e20556e64657267726f756e642053746174696f6e0000008152506040805190810160405280601e81526020017f4d616964612056616c6520556e64657267726f756e642053746174696f6e00008152506040805190810160405280600381526020017f3539300000000000000000000000000000000000000000000000000000000000815250620002b0640100000000026401000000009004565b50620002a9652222222222226040805190810160405280601e81526020017f4265726d6f6e6473657920556e64657267726f756e642053746174696f6e00008152506040805190810160405280601b81526020017f4b696c6275726e20556e64657267726f756e642053746174696f6e00000000008152506040805190810160405280600381526020017f3539300000000000000000000000000000000000000000000000000000000000815250620002b0640100000000026401000000009004565b5062000686565b60008060008060008873ffffffffffffffffffffffffffffffffffffffff1673ffffffffffffffffffffffffffffffffffffffff1681526020019081526020016000205491506000821415156200030657600080fd5b6001805490506000808973ffffffffffffffffffffffffffffffffffffffff1673ffffffffffffffffffffffffffffffffffffffff1681526020019081526020016000208190555060018054809190600101620003649190620004c7565b905060c0604051908101604052808781526020018681526020018581526020018873ffffffffffffffffffffffffffffffffffffffff16815260200142815260200142815250600182815481101515620003ba57fe5b90600052602060002090600602016000820151816000019080519060200190620003e6929190620004fc565b50602082015181600101908051906020019062000405929190620004fc565b50604082015181600201908051906020019062000424929190620004fc565b5060608201518160030160006101000a81548173ffffffffffffffffffffffffffffffffffffffff021916908373ffffffffffffffffffffffffffffffffffffffff1602179055506080820151816004015560a082015181600501559050507f6bef7adacfc09f59a87202193c883458dd5621fccb6887d9dffb9c188994c0ba816040518082815260200191505060405180910390a18092505050949350505050565b815481835581811115620004f757600602816006028360005260206000209182019101620004f6919062000583565b5b505050565b828054600181600116156101000203166002900490600052602060002090601f016020900481019282601f106200053f57805160ff191683800117855562000570565b8280016001018555821562000570579182015b828111156200056f57825182559160200191906001019062000552565b5b5090506200057f919062000612565b5090565b6200060f91905b808211156200060b5760008082016000620005a691906200063a565b600182016000620005b891906200063a565b600282016000620005ca91906200063a565b6003820160006101000a81549073ffffffffffffffffffffffffffffffffffffffff021916905560048201600090556005820160009055506006016200058a565b5090565b90565b6200063791905b808211156200063357600081600090555060010162000619565b5090565b90565b50805460018160011615610100020316600290046000825580601f1062000662575062000683565b601f01602090049060005260206000209081019062000682919062000612565b5b50565b61146f80620006966000396000f30060806040526004361061008e576000357c0100000000000000000000000000000000000000000000000000000000900463ffffffff16806315e6820514610093578063223668441461025957806336ae14c8146102885780638df5a9fa146102df578063993bdb371461049e578063bc4e7007146105a7578063c725f9b2146105d2578063fd1b5158146106db575b600080fd5b34801561009f57600080fd5b506100be6004803603810190808035906020019092919050505061088b565b604051808881526020018060200180602001806020018773ffffffffffffffffffffffffffffffffffffffff1673ffffffffffffffffffffffffffffffffffffffff16815260200186815260200185815260200184810384528a818151815260200191508051906020019080838360005b8381101561014a57808201518184015260208101905061012f565b50505050905090810190601f1680156101775780820380516001836020036101000a031916815260200191505b50848103835289818151815260200191508051906020019080838360005b838110156101b0578082015181840152602081019050610195565b50505050905090810190601f1680156101dd5780820380516001836020036101000a031916815260200191505b50848103825288818151815260200191508051906020019080838360005b838110156102165780820151818401526020810190506101fb565b50505050905090810190601f1680156102435780820380516001836020036101000a031916815260200191505b509a505050505050505050505060405180910390f35b34801561026557600080fd5b5061026e610b7b565b604051808215151515815260200191505060405180910390f35b34801561029457600080fd5b506102c9600480360381019080803573ffffffffffffffffffffffffffffffffffffffff169060200190929190505050610bc4565b6040518082815260200191505060405180910390f35b3480156102eb57600080fd5b5061030a60048036038101908080359060200190929190505050610bdc565b604051808060200180602001806020018773ffffffffffffffffffffffffffffffffffffffff1673ffffffffffffffffffffffffffffffffffffffff16815260200186815260200185815260200184810384528a818151815260200191508051906020019080838360005b83811015610390578082015181840152602081019050610375565b50505050905090810190601f1680156103bd5780820380516001836020036101000a031916815260200191505b50848103835289818151815260200191508051906020019080838360005b838110156103f65780820151818401526020810190506103db565b50505050905090810190601f1680156104235780820380516001836020036101000a031916815260200191505b50848103825288818151815260200191508051906020019080838360005b8381101561045c578082015181840152602081019050610441565b50505050905090810190601f1680156104895780820380516001836020036101000a031916815260200191505b50995050505050505050505060405180910390f35b3480156104aa57600080fd5b50610591600480360381019080803590602001908201803590602001908080601f0160208091040260200160405190810160405280939291908181526020018383808284378201915050505050509192919290803590602001908201803590602001908080601f0160208091040260200160405190810160405280939291908181526020018383808284378201915050505050509192919290803590602001908201803590602001908080601f0160208091040260200160405190810160405280939291908181526020018383808284378201915050505050509192919290505050610e0f565b6040518082815260200191505060405180910390f35b3480156105b357600080fd5b506105bc610f1e565b6040518082815260200191505060405180910390f35b3480156105de57600080fd5b506106c5600480360381019080803590602001908201803590602001908080601f0160208091040260200160405190810160405280939291908181526020018383808284378201915050505050509192919290803590602001908201803590602001908080601f0160208091040260200160405190810160405280939291908181526020018383808284378201915050505050509192919290803590602001908201803590602001908080601f0160208091040260200160405190810160405280939291908181526020018383808284378201915050505050509192919290505050610f2b565b6040518082815260200191505060405180910390f35b3480156106e757600080fd5b506106f0610f42565b604051808881526020018060200180602001806020018773ffffffffffffffffffffffffffffffffffffffff1673ffffffffffffffffffffffffffffffffffffffff16815260200186815260200185815260200184810384528a818151815260200191508051906020019080838360005b8381101561077c578082015181840152602081019050610761565b50505050905090810190601f1680156107a95780820380516001836020036101000a031916815260200191505b50848103835289818151815260200191508051906020019080838360005b838110156107e25780820151818401526020810190506107c7565b50505050905090810190601f16801561080f5780820380516001836020036101000a031916815260200191505b50848103825288818151815260200191508051906020019080838360005b8381101561084857808201518184015260208101905061082d565b50505050905090810190601f1680156108755780820380516001836020036101000a031916815260200191505b509a505050505050505050505060405180910390f35b60006060806060600080600061089f6111d1565b60008911806108b357506001805490508911155b15156108be57600080fd5b6001898154811015156108cd57fe5b906000526020600020906006020160c06040519081016040529081600082018054600181600116156101000203166002900480601f0160208091040260200160405190810160405280929190818152602001828054600181600116156101000203166002900480156109805780601f1061095557610100808354040283529160200191610980565b820191906000526020600020905b81548152906001019060200180831161096357829003601f168201915b50505050508152602001600182018054600181600116156101000203166002900480601f016020809104026020016040519081016040528092919081815260200182805460018160011615610100020316600290048015610a225780601f106109f757610100808354040283529160200191610a22565b820191906000526020600020905b815481529060010190602001808311610a0557829003601f168201915b50505050508152602001600282018054600181600116156101000203166002900480601f016020809104026020016040519081016040528092919081815260200182805460018160011615610100020316600290048015610ac45780601f10610a9957610100808354040283529160200191610ac4565b820191906000526020600020905b815481529060010190602001808311610aa757829003601f168201915b505050505081526020016003820160009054906101000a900473ffffffffffffffffffffffffffffffffffffffff1673ffffffffffffffffffffffffffffffffffffffff1673ffffffffffffffffffffffffffffffffffffffff16815260200160048201548152602001600582015481525050905088816000015182602001518360400151846060015185608001518660a00151859550849450839350975097509750975097509750975050919395979092949650565b6000806000803373ffffffffffffffffffffffffffffffffffffffff1673ffffffffffffffffffffffffffffffffffffffff168152602001908152602001600020541415905090565b60006020528060005260406000206000915090505481565b600181815481101515610beb57fe5b9060005260206000209060060201600091509050806000018054600181600116156101000203166002900480601f016020809104026020016040519081016040528092919081815260200182805460018160011615610100020316600290048015610c975780601f10610c6c57610100808354040283529160200191610c97565b820191906000526020600020905b815481529060010190602001808311610c7a57829003601f168201915b505050505090806001018054600181600116156101000203166002900480601f016020809104026020016040519081016040528092919081815260200182805460018160011615610100020316600290048015610d355780601f10610d0a57610100808354040283529160200191610d35565b820191906000526020600020905b815481529060010190602001808311610d1857829003601f168201915b505050505090806002018054600181600116156101000203166002900480601f016020809104026020016040519081016040528092919081815260200182805460018160011615610100020316600290048015610dd35780601f10610da857610100808354040283529160200191610dd3565b820191906000526020600020905b815481529060010190602001808311610db657829003601f168201915b5050505050908060030160009054906101000a900473ffffffffffffffffffffffffffffffffffffffff16908060040154908060050154905086565b6000806000610e1c610b7b565b1515610e2757600080fd5b6000803373ffffffffffffffffffffffffffffffffffffffff1673ffffffffffffffffffffffffffffffffffffffff168152602001908152602001600020549150600182815481101515610e7757fe5b9060005260206000209060060201905085816000019080519060200190610e9f92919061121e565b5084816001019080519060200190610eb892919061121e565b5083816002019080519060200190610ed192919061121e565b504281600501819055507fdb063512f00940756581e7b0b8efccfd498f53fc4f505706c2c535612945e505826040518082815260200191505060405180910390a181925050509392505050565b6000600180549050905090565b6000610f3933858585610fc4565b90509392505050565b60006060806060600080600080610f57610b7b565b1515610f6257600080fd5b6000803373ffffffffffffffffffffffffffffffffffffffff1673ffffffffffffffffffffffffffffffffffffffff168152602001908152602001600020549050610fac8161088b565b97509750975097509750975097505090919293949596565b60008060008060008873ffffffffffffffffffffffffffffffffffffffff1673ffffffffffffffffffffffffffffffffffffffff16815260200190815260200160002054915060008214151561101957600080fd5b6001805490506000808973ffffffffffffffffffffffffffffffffffffffff1673ffffffffffffffffffffffffffffffffffffffff1681526020019081526020016000208190555060018054809190600101611075919061129e565b905060c0604051908101604052808781526020018681526020018581526020018873ffffffffffffffffffffffffffffffffffffffff168152602001428152602001428152506001828154811015156110ca57fe5b906000526020600020906006020160008201518160000190805190602001906110f49291906112d0565b5060208201518160010190805190602001906111119291906112d0565b50604082015181600201908051906020019061112e9291906112d0565b5060608201518160030160006101000a81548173ffffffffffffffffffffffffffffffffffffffff021916908373ffffffffffffffffffffffffffffffffffffffff1602179055506080820151816004015560a082015181600501559050507f6bef7adacfc09f59a87202193c883458dd5621fccb6887d9dffb9c188994c0ba816040518082815260200191505060405180910390a18092505050949350505050565b60c060405190810160405280606081526020016060815260200160608152602001600073ffffffffffffffffffffffffffffffffffffffff16815260200160008152602001600081525090565b828054600181600116156101000203166002900490600052602060002090601f016020900481019282601f1061125f57805160ff191683800117855561128d565b8280016001018555821561128d579182015b8281111561128c578251825591602001919060010190611271565b5b50905061129a9190611350565b5090565b8154818355818111156112cb576006028160060283600052602060002091820191016112ca9190611375565b5b505050565b828054600181600116156101000203166002900490600052602060002090601f016020900481019282601f1061131157805160ff191683800117855561133f565b8280016001018555821561133f579182015b8281111561133e578251825591602001919060010190611323565b5b50905061134c9190611350565b5090565b61137291905b8082111561136e576000816000905550600101611356565b5090565b90565b6113f891905b808211156113f4576000808201600061139491906113fb565b6001820160006113a491906113fb565b6002820160006113b491906113fb565b6003820160006101000a81549073ffffffffffffffffffffffffffffffffffffffff0219169055600482016000905560058201600090555060060161137b565b5090565b90565b50805460018160011615610100020316600290046000825580601f106114215750611440565b601f01602090049060005260206000209081019061143f9190611350565b5b505600a165627a7a72305820139c4cc79c0d041f4952c9b13a5db652536dec05d852b8256f97e4450e81e3320029",
  "source": "pragma solidity ^0.4.21;\n\n\ncontract Journeys {\n    // data structure that stores a journey\n    struct Journey {\n        string from;\n        string to;\n        string endingFare;\n        address walletAddress;\n        uint createdAt;\n        uint updatedAt;\n    }\n\n    // it maps the journey's wallet address with the journey ID\n    mapping (address => uint) public journeysIds;\n\n    // Array of Journey that holds the list of journeys and their details\n    Journey[] public journeys;\n\n    // event fired when a new journey is registered\n    event newJourneyRegistered(uint id);\n\n    // event fired when the journey is updated\n    event journeyUpdateEvent(uint id);\n\n\n\n    // Modifier: check if the caller of the smart contract is registered\n    modifier checkSenderIsRegistered {\n    \trequire(isRegistered());\n    \t_;\n    }\n\n\n\n    /**\n     * Constructor function\n     */\n    function Journeys() public {\n        // NOTE: the first journey MUST be empty\n        addJourney(0x0, \"\", \"\", \"\");\n\n        // Some dummy data\n        addJourney(0x333333333333, \"Pinner Underground Station\", \"Kilburn Underground Station\", \"590\");\n        addJourney(0x111111111111, \"Willesden Underground Station\", \"Maida Vale Underground Station\", \"590\");\n        addJourney(0x222222222222, \"Bermondsey Underground Station\", \"Kilburn Underground Station\", \"590\");\n    }\n\n\n\n    /**\n     * Function to register a new journey.\n     *\n     * @param from   Point of Origin\n     * @param to     Destination\n     * @param endingFare Ending Fare\n     */\n    function registerJourney(string from, string to, string endingFare) public returns(uint)\n    {\n    \treturn addJourney(msg.sender, from, to, endingFare);\n    }\n\n\n\n    /**\n     * Add a new journey. This function must be private because a journey\n     * cannot insert another journey on behalf of someone else.\n     *\n     * @param wAddr \t\tAddress wallet of the journey\n     * @param from\t\t    Point of origin\n     * @param to\t\t    Destination \n     * @param endingFare\tending Fare\n    */\n\n    function addJourney(address wAddr, string from, string to, string endingFare) private\n    returns(uint)\n    {\n        // checking if the journey is already registered\n        uint journeyId = journeysIds[wAddr];\n        require (journeyId == 0);\n\n        // associating the journey wallet address with the new ID\n        journeysIds[wAddr] = journeys.length;\n        uint newJourneyId = journeys.length++;\n\n        // storing the new journey details\n        journeys[newJourneyId] = Journey({\n            from: from,\n            to: to,\n            endingFare: endingFare,\n            walletAddress: wAddr,\n            createdAt: now,\n            updatedAt: now\n        });\n\n        // emitting the event that a new journey has been registered\n        emit newJourneyRegistered(newJourneyId);\n\n        return newJourneyId;\n    }\n\n\n    /**\n     * Update the journey confirmation of the caller of this method.\n     * Note: the journey can modify only his own confirmation.\n     *\n     * @param newFrom\t    The new journey's displaying from\n     * @param newTo \t    The new journey's to\n     * @param newendingFare The new journey's endingFare\n     *\n     */\n    function updateJourney(string newFrom, string newTo, string newendingFare) checkSenderIsRegistered public\n    returns(uint)\n    {\n    \t// A journey can modify only their own confirmation.\n    \tuint journeyId = journeysIds[msg.sender];\n\n    \tJourney storage journey = journeys[journeyId];\n\n    \tjourney.from = newFrom;\n    \tjourney.to = newTo;\n        journey.endingFare = newendingFare;\n    \tjourney.updatedAt = now;\n\n    \temit journeyUpdateEvent(journeyId);\n\n    \treturn journeyId;\n    }\n\n\n    /**\n     * Get the journey's confirmation information.\n     *\n     * @param id \tThe ID of the journey stored on the blockchain.\n     */\n    function getJourneyById(uint id) public view\n    returns(\n    \tuint,\n    \tstring,\n    \tstring,\n        string,\n    \taddress,\n    \tuint,\n    \tuint\n    ) {\n    \t// checking if the ID is valid\n    \trequire( (id > 0) || (id <= journeys.length) );\n\n    \tJourney memory i = journeys[id];\n\n    \treturn (\n    \t\tid,\n    \t\ti.from,\n    \t\ti.to,\n            i.endingFare,\n    \t\ti.walletAddress,\n    \t\ti.createdAt,\n    \t\ti.updatedAt\n    \t);\n    }\n\n    /**\n     * Return the confirmation information of the caller.\n     */\n    function getOwnProfile() checkSenderIsRegistered public view\n    returns(\n    \tuint,\n    \tstring,\n    \tstring,\n        string,\n    \taddress,\n    \tuint,\n    \tuint\n    ) {\n    \tuint id = journeysIds[msg.sender];\n\n    \treturn getJourneyById(id);\n    }\n\n\n\n\n    /**\n     * Check if the journey that is calling the smart contract is registered.\n     */\n    function isRegistered() public view returns (bool)\n    {\n    \treturn (journeysIds[msg.sender] != 0);\n    }\n\n\n\n    /**\n     * Return the number of total registered journeys.\n     */\n    function totalJourneys() public view returns (uint)\n    {\n        return journeys.length;\n    }\n\n}",
  "sourcePath": "/Users/yameste/Sites/blocktrain-dapp/contracts/Journeys.sol",
  "compiler": {
    "name": "solc",
    "version": "0.4.24+commit.e67f0147.Emscripten.clang"
  },
  "schemaVersion": "2.0.1",
  "updatedAt": "2018-08-15T08:14:20.250Z"
}