{
    "contractName": "Users",
    "abi": [
        {
            "constant": true,
            "inputs": [
                {
                    "name": "",
                    "type": "uint256"
                }
            ],
            "name": "users",
            "outputs": [
                {
                    "name": "name",
                    "type": "string"
                },
                {
                    "name": "status",
                    "type": "bytes32"
                },
                {
                    "name": "walletAddress",
                    "type": "address"
                },
                {
                    "name": "createdAt",
                    "type": "uint256"
                },
                {
                    "name": "updatedAt",
                    "type": "uint256"
                }
            ],
            "payable": false,
            "stateMutability": "view",
            "type": "function"
        },
        {
            "constant": true,
            "inputs": [
                {
                    "name": "",
                    "type": "address"
                }
            ],
            "name": "usersIds",
            "outputs": [
                {
                    "name": "",
                    "type": "uint256"
                }
            ],
            "payable": false,
            "stateMutability": "view",
            "type": "function"
        },
        {
            "inputs": [],
            "payable": false,
            "stateMutability": "nonpayable",
            "type": "constructor"
        },
        {
            "anonymous": false,
            "inputs": [
                {
                    "indexed": false,
                    "name": "id",
                    "type": "uint256"
                }
            ],
            "name": "newUserRegistered",
            "type": "event"
        },
        {
            "anonymous": false,
            "inputs": [
                {
                    "indexed": false,
                    "name": "id",
                    "type": "uint256"
                }
            ],
            "name": "userUpdateEvent",
            "type": "event"
        },
        {
            "constant": false,
            "inputs": [
                {
                    "name": "userName",
                    "type": "string"
                },
                {
                    "name": "status",
                    "type": "bytes32"
                }
            ],
            "name": "registerUser",
            "outputs": [
                {
                    "name": "",
                    "type": "uint256"
                }
            ],
            "payable": false,
            "stateMutability": "nonpayable",
            "type": "function"
        },
        {
            "constant": false,
            "inputs": [
                {
                    "name": "newUserName",
                    "type": "string"
                },
                {
                    "name": "newStatus",
                    "type": "bytes32"
                }
            ],
            "name": "updateUser",
            "outputs": [
                {
                    "name": "",
                    "type": "uint256"
                }
            ],
            "payable": false,
            "stateMutability": "nonpayable",
            "type": "function"
        },
        {
            "constant": true,
            "inputs": [
                {
                    "name": "id",
                    "type": "uint256"
                }
            ],
            "name": "getUserById",
            "outputs": [
                {
                    "name": "",
                    "type": "uint256"
                },
                {
                    "name": "",
                    "type": "string"
                },
                {
                    "name": "",
                    "type": "bytes32"
                },
                {
                    "name": "",
                    "type": "address"
                },
                {
                    "name": "",
                    "type": "uint256"
                },
                {
                    "name": "",
                    "type": "uint256"
                }
            ],
            "payable": false,
            "stateMutability": "view",
            "type": "function"
        },
        {
            "constant": true,
            "inputs": [],
            "name": "getOwnProfile",
            "outputs": [
                {
                    "name": "",
                    "type": "uint256"
                },
                {
                    "name": "",
                    "type": "string"
                },
                {
                    "name": "",
                    "type": "bytes32"
                },
                {
                    "name": "",
                    "type": "address"
                },
                {
                    "name": "",
                    "type": "uint256"
                },
                {
                    "name": "",
                    "type": "uint256"
                }
            ],
            "payable": false,
            "stateMutability": "view",
            "type": "function"
        },
        {
            "constant": true,
            "inputs": [],
            "name": "isRegistered",
            "outputs": [
                {
                    "name": "",
                    "type": "bool"
                }
            ],
            "payable": false,
            "stateMutability": "view",
            "type": "function"
        },
        {
            "constant": true,
            "inputs": [],
            "name": "totalUsers",
            "outputs": [
                {
                    "name": "",
                    "type": "uint256"
                }
            ],
            "payable": false,
            "stateMutability": "view",
            "type": "function"
        }
    ],
    "bytecode": "0x60806040523480156200001157600080fd5b5062000040600060206040519081016040528060008152506000620001af640100000000026401000000009004565b50620000b8653333333333336040805190810160405280600981526020017f4c656f2042726f776e00000000000000000000000000000000000000000000008152507f417661696c61626c650000000000000000000000000000000000000000000000620001af640100000000026401000000009004565b5062000130651111111111116040805190810160405280600881526020017f4a6f686e20446f650000000000000000000000000000000000000000000000008152507f5665727920686170707900000000000000000000000000000000000000000000620001af640100000000026401000000009004565b50620001a8652222222222226040805190810160405280600a81526020017f4d61727920536d697468000000000000000000000000000000000000000000008152507f4e6f7420696e20746865206d6f6f6420746f6461790000000000000000000000620001af640100000000026401000000009004565b5062000538565b60008060008060008773ffffffffffffffffffffffffffffffffffffffff1673ffffffffffffffffffffffffffffffffffffffff1681526020019081526020016000205491506000821415156200020557600080fd5b6001805490506000808873ffffffffffffffffffffffffffffffffffffffff1673ffffffffffffffffffffffffffffffffffffffff168152602001908152602001600020819055506001805480919060010162000263919062000395565b905060a060405190810160405280868152602001856000191681526020018773ffffffffffffffffffffffffffffffffffffffff16815260200142815260200142815250600182815481101515620002b757fe5b90600052602060002090600502016000820151816000019080519060200190620002e3929190620003ca565b506020820151816001019060001916905560408201518160020160006101000a81548173ffffffffffffffffffffffffffffffffffffffff021916908373ffffffffffffffffffffffffffffffffffffffff16021790555060608201518160030155608082015181600401559050507f2456c02735fb44894660d2af194ca5261385d8ee03675e1d75b0da1300a764cd816040518082815260200191505060405180910390a180925050509392505050565b815481835581811115620003c557600502816005028360005260206000209182019101620003c4919062000451565b5b505050565b828054600181600116156101000203166002900490600052602060002090601f016020900481019282601f106200040d57805160ff19168380011785556200043e565b828001600101855582156200043e579182015b828111156200043d57825182559160200191906001019062000420565b5b5090506200044d9190620004c4565b5090565b620004c191905b80821115620004bd5760008082016000620004749190620004ec565b60018201600090556002820160006101000a81549073ffffffffffffffffffffffffffffffffffffffff0219169055600382016000905560048201600090555060050162000458565b5090565b90565b620004e991905b80821115620004e5576000816000905550600101620004cb565b5090565b90565b50805460018160011615610100020316600290046000825580601f1062000514575062000535565b601f016020900490600052602060002090810190620005349190620004c4565b5b50565b610e2a80620005486000396000f30060806040526004361061008e576000357c0100000000000000000000000000000000000000000000000000000000900463ffffffff1680632236684414610093578063365b98b2146100c257806368ae5563146101b85780636ed6da9e146102435780638f39471514610340578063b8e21a5b146103cb578063bff1f9e114610422578063fd1b51581461044d575b600080fd5b34801561009f57600080fd5b506100a8610534565b604051808215151515815260200191505060405180910390f35b3480156100ce57600080fd5b506100ed6004803603810190808035906020019092919050505061057d565b604051808060200186600019166000191681526020018573ffffffffffffffffffffffffffffffffffffffff1673ffffffffffffffffffffffffffffffffffffffff168152602001848152602001838152602001828103825287818151815260200191508051906020019080838360005b8381101561017957808201518184015260208101905061015e565b50505050905090810190601f1680156101a65780820380516001836020036101000a031916815260200191505b50965050505050505060405180910390f35b3480156101c457600080fd5b5061022d600480360381019080803590602001908201803590602001908080601f0160208091040260200160405190810160405280939291908181526020018383808284378201915050505050509192919290803560001916906020019092919050505061067a565b6040518082815260200191505060405180910390f35b34801561024f57600080fd5b5061026e6004803603810190808035906020019092919050505061068f565b604051808781526020018060200186600019166000191681526020018573ffffffffffffffffffffffffffffffffffffffff1673ffffffffffffffffffffffffffffffffffffffff168152602001848152602001838152602001828103825287818151815260200191508051906020019080838360005b838110156103005780820151818401526020810190506102e5565b50505050905090810190601f16801561032d5780820380516001836020036101000a031916815260200191505b5097505050505050505060405180910390f35b34801561034c57600080fd5b506103b5600480360381019080803590602001908201803590602001908080601f0160208091040260200160405190810160405280939291908181526020018383808284378201915050505050509192919290803560001916906020019092919050505061083c565b6040518082815260200191505060405180910390f35b3480156103d757600080fd5b5061040c600480360381019080803573ffffffffffffffffffffffffffffffffffffffff169060200190929190505050610925565b6040518082815260200191505060405180910390f35b34801561042e57600080fd5b5061043761093d565b6040518082815260200191505060405180910390f35b34801561045957600080fd5b5061046261094a565b604051808781526020018060200186600019166000191681526020018573ffffffffffffffffffffffffffffffffffffffff1673ffffffffffffffffffffffffffffffffffffffff168152602001848152602001838152602001828103825287818151815260200191508051906020019080838360005b838110156104f45780820151818401526020810190506104d9565b50505050905090810190601f1680156105215780820380516001836020036101000a031916815260200191505b5097505050505050505060405180910390f35b6000806000803373ffffffffffffffffffffffffffffffffffffffff1673ffffffffffffffffffffffffffffffffffffffff168152602001908152602001600020541415905090565b60018181548110151561058c57fe5b9060005260206000209060050201600091509050806000018054600181600116156101000203166002900480601f0160208091040260200160405190810160405280929190818152602001828054600181600116156101000203166002900480156106385780601f1061060d57610100808354040283529160200191610638565b820191906000526020600020905b81548152906001019060200180831161061b57829003601f168201915b5050505050908060010154908060020160009054906101000a900473ffffffffffffffffffffffffffffffffffffffff16908060030154908060040154905085565b60006106873384846109c8565b905092915050565b600060606000806000806106a1610ba8565b60008811806106b557506001805490508811155b15156106c057600080fd5b6001888154811015156106cf57fe5b906000526020600020906005020160a06040519081016040529081600082018054600181600116156101000203166002900480601f0160208091040260200160405190810160405280929190818152602001828054600181600116156101000203166002900480156107825780601f1061075757610100808354040283529160200191610782565b820191906000526020600020905b81548152906001019060200180831161076557829003601f168201915b505050505081526020016001820154600019166000191681526020016002820160009054906101000a900473ffffffffffffffffffffffffffffffffffffffff1673ffffffffffffffffffffffffffffffffffffffff1673ffffffffffffffffffffffffffffffffffffffff16815260200160038201548152602001600482015481525050905087816000015182602001518360400151846060015185608001518494509650965096509650965096505091939550919395565b6000806000610849610534565b151561085457600080fd5b6000803373ffffffffffffffffffffffffffffffffffffffff1673ffffffffffffffffffffffffffffffffffffffff1681526020019081526020016000205491506001828154811015156108a457fe5b90600052602060002090600502019050848160000190805190602001906108cc929190610bf1565b50838160010181600019169055504281600401819055507f179dda4b314caed68129a8b8bbd77c7a4fb092c2d9fb3de452a4f8e4839dc876826040518082815260200191505060405180910390a1819250505092915050565b60006020528060005260406000206000915090505481565b6000600180549050905090565b60006060600080600080600061095e610534565b151561096957600080fd5b6000803373ffffffffffffffffffffffffffffffffffffffff1673ffffffffffffffffffffffffffffffffffffffff1681526020019081526020016000205490506109b38161068f565b96509650965096509650965050909192939495565b60008060008060008773ffffffffffffffffffffffffffffffffffffffff1673ffffffffffffffffffffffffffffffffffffffff168152602001908152602001600020549150600082141515610a1d57600080fd5b6001805490506000808873ffffffffffffffffffffffffffffffffffffffff1673ffffffffffffffffffffffffffffffffffffffff1681526020019081526020016000208190555060018054809190600101610a799190610c71565b905060a060405190810160405280868152602001856000191681526020018773ffffffffffffffffffffffffffffffffffffffff16815260200142815260200142815250600182815481101515610acc57fe5b90600052602060002090600502016000820151816000019080519060200190610af6929190610ca3565b506020820151816001019060001916905560408201518160020160006101000a81548173ffffffffffffffffffffffffffffffffffffffff021916908373ffffffffffffffffffffffffffffffffffffffff16021790555060608201518160030155608082015181600401559050507f2456c02735fb44894660d2af194ca5261385d8ee03675e1d75b0da1300a764cd816040518082815260200191505060405180910390a180925050509392505050565b60a0604051908101604052806060815260200160008019168152602001600073ffffffffffffffffffffffffffffffffffffffff16815260200160008152602001600081525090565b828054600181600116156101000203166002900490600052602060002090601f016020900481019282601f10610c3257805160ff1916838001178555610c60565b82800160010185558215610c60579182015b82811115610c5f578251825591602001919060010190610c44565b5b509050610c6d9190610d23565b5090565b815481835581811115610c9e57600502816005028360005260206000209182019101610c9d9190610d48565b5b505050565b828054600181600116156101000203166002900490600052602060002090601f016020900481019282601f10610ce457805160ff1916838001178555610d12565b82800160010185558215610d12579182015b82811115610d11578251825591602001919060010190610cf6565b5b509050610d1f9190610d23565b5090565b610d4591905b80821115610d41576000816000905550600101610d29565b5090565b90565b610db391905b80821115610daf5760008082016000610d679190610db6565b60018201600090556002820160006101000a81549073ffffffffffffffffffffffffffffffffffffffff02191690556003820160009055600482016000905550600501610d4e565b5090565b90565b50805460018160011615610100020316600290046000825580601f10610ddc5750610dfb565b601f016020900490600052602060002090810190610dfa9190610d23565b5b505600a165627a7a723058204c75f7954ea8f01b19002801fac1aaf62d61e94fe50c0d5003c425642a9e8fd60029",
    "source": "pragma solidity ^0.4.21;\n\n\n\ncontract Users {\n    // data structure that stores a user\n    struct User {\n        string name;\n        bytes32 status;\n        address walletAddress;\n        uint createdAt;\n        uint updatedAt;\n    }\n\n    // it maps the user's wallet address with the user ID\n    mapping (address => uint) public usersIds;\n\n    // Array of User that holds the list of users and their details\n    User[] public users;\n\n    // event fired when an user is registered\n    event newUserRegistered(uint id);\n\n    // event fired when the user updates his status or name\n    event userUpdateEvent(uint id);\n\n\n\n    // Modifier: check if the caller of the smart contract is registered\n    modifier checkSenderIsRegistered {\n    \trequire(isRegistered());\n    \t_;\n    }\n\n\n\n    /**\n     * Constructor function\n     */\n    function Users() public {\n        // NOTE: the first user MUST be emtpy\n        addUser(0x0, \"\", \"\");\n\n        // Some dummy data\n        addUser(0x333333333333, \"Leo Brown\", \"Available\");\n        addUser(0x111111111111, \"John Doe\", \"Very happy\");\n        addUser(0x222222222222, \"Mary Smith\", \"Not in the mood today\");\n    }\n\n\n\n    /**\n     * Function to register a new user.\n     *\n     * @param userName \t\tThe displaying name\n     * @param status        The status of the user\n     */\n    function registerUser(string userName, bytes32 status) public\n    returns(uint)\n    {\n    \treturn addUser(msg.sender, userName, status);\n    }\n\n\n\n    /**\n     * Add a new user. This function must be private because an user\n     * cannot insert another user on behalf of someone else.\n     *\n     * @param wAddr \t\tAddress wallet of the user\n     * @param userName\t\tDisplaying name of the user\n     * @param status    \tStatus of the user\n     */\n    function addUser(address wAddr, string userName, bytes32 status) private\n    returns(uint)\n    {\n        // checking if the user is already registered\n        uint userId = usersIds[wAddr];\n        require (userId == 0);\n\n        // associating the user wallet address with the new ID\n        usersIds[wAddr] = users.length;\n        uint newUserId = users.length++;\n\n        // storing the new user details\n        users[newUserId] = User({\n        \tname: userName,\n        \tstatus: status,\n        \twalletAddress: wAddr,\n        \tcreatedAt: now,\n        \tupdatedAt: now\n        });\n\n        // emitting the event that a new user has been registered\n        emit newUserRegistered(newUserId);\n\n        return newUserId;\n    }\n\n\n\n    /**\n     * Update the user profile of the caller of this method.\n     * Note: the user can modify only his own profile.\n     *\n     * @param newUserName\tThe new user's displaying name\n     * @param newStatus \tThe new user's status\n     */\n    function updateUser(string newUserName, bytes32 newStatus) checkSenderIsRegistered public\n    returns(uint)\n    {\n    \t// An user can modify only his own profile.\n    \tuint userId = usersIds[msg.sender];\n\n    \tUser storage user = users[userId];\n\n    \tuser.name = newUserName;\n    \tuser.status = newStatus;\n    \tuser.updatedAt = now;\n\n    \temit userUpdateEvent(userId);\n\n    \treturn userId;\n    }\n\n\n\n    /**\n     * Get the user's profile information.\n     *\n     * @param id \tThe ID of the user stored on the blockchain.\n     */\n    function getUserById(uint id) public view\n    returns(\n    \tuint,\n    \tstring,\n    \tbytes32,\n    \taddress,\n    \tuint,\n    \tuint\n    ) {\n    \t// checking if the ID is valid\n    \trequire( (id > 0) || (id <= users.length) );\n\n    \tUser memory i = users[id];\n\n    \treturn (\n    \t\tid,\n    \t\ti.name,\n    \t\ti.status,\n    \t\ti.walletAddress,\n    \t\ti.createdAt,\n    \t\ti.updatedAt\n    \t);\n    }\n\n\n\n    /**\n     * Return the profile information of the caller.\n     */\n    function getOwnProfile() checkSenderIsRegistered public view\n    returns(\n    \tuint,\n    \tstring,\n    \tbytes32,\n    \taddress,\n    \tuint,\n    \tuint\n    ) {\n    \tuint id = usersIds[msg.sender];\n\n    \treturn getUserById(id);\n    }\n\n\n\n    /**\n     * Check if the user that is calling the smart contract is registered.\n     */\n    function isRegistered() public view returns (bool)\n    {\n    \treturn (usersIds[msg.sender] != 0);\n    }\n\n\n\n    /**\n     * Return the number of total registered users.\n     */\n    function totalUsers() public view returns (uint)\n    {\n        return users.length;\n    }\n\n}\n",
    "sourcePath": "/Users/yameste/Sites/blocktrain-dapp/contracts/Users.sol",
    "compiler": {
        "name": "solc",
        "version": "0.4.24+commit.e67f0147.Emscripten.clang"
    },
    "schemaVersion": "2.0.1",
    "updatedAt": "2018-08-11T10:11:13.974Z"
}