{
  "contractName": "Journeys",
  "abi": [
    {
      "constant": true,
      "inputs": [
        {
          "name": "",
          "type": "address"
        }
      ],
      "name": "journeysIds",
      "outputs": [
        {
          "name": "",
          "type": "uint256"
        }
      ],
      "payable": false,
      "stateMutability": "view",
      "type": "function"
    },
    {
      "constant": true,
      "inputs": [
        {
          "name": "",
          "type": "uint256"
        }
      ],
      "name": "journeys",
      "outputs": [
        {
          "name": "from",
          "type": "string"
        },
        {
          "name": "to",
          "type": "string"
        },
        {
          "name": "endingFare",
          "type": "uint256"
        },
        {
          "name": "walletAddress",
          "type": "address"
        },
        {
          "name": "createdAt",
          "type": "uint256"
        },
        {
          "name": "updatedAt",
          "type": "uint256"
        }
      ],
      "payable": false,
      "stateMutability": "view",
      "type": "function"
    },
    {
      "inputs": [],
      "payable": false,
      "stateMutability": "nonpayable",
      "type": "constructor"
    },
    {
      "anonymous": false,
      "inputs": [
        {
          "indexed": false,
          "name": "id",
          "type": "uint256"
        }
      ],
      "name": "newJourneyRegistered",
      "type": "event"
    },
    {
      "anonymous": false,
      "inputs": [
        {
          "indexed": false,
          "name": "id",
          "type": "uint256"
        }
      ],
      "name": "journeyUpdateEvent",
      "type": "event"
    },
    {
      "constant": false,
      "inputs": [
        {
          "name": "from",
          "type": "string"
        },
        {
          "name": "to",
          "type": "string"
        },
        {
          "name": "endingFare",
          "type": "uint256"
        }
      ],
      "name": "registerJourney",
      "outputs": [
        {
          "name": "",
          "type": "uint256"
        }
      ],
      "payable": false,
      "stateMutability": "nonpayable",
      "type": "function"
    },
    {
      "constant": false,
      "inputs": [
        {
          "name": "newFrom",
          "type": "string"
        },
        {
          "name": "newTo",
          "type": "string"
        },
        {
          "name": "newendingFare",
          "type": "uint256"
        }
      ],
      "name": "updateJourney",
      "outputs": [
        {
          "name": "",
          "type": "uint256"
        }
      ],
      "payable": false,
      "stateMutability": "nonpayable",
      "type": "function"
    },
    {
      "constant": true,
      "inputs": [
        {
          "name": "id",
          "type": "uint256"
        }
      ],
      "name": "getJourneyById",
      "outputs": [
        {
          "name": "",
          "type": "uint256"
        },
        {
          "name": "",
          "type": "string"
        },
        {
          "name": "",
          "type": "string"
        },
        {
          "name": "",
          "type": "uint256"
        },
        {
          "name": "",
          "type": "address"
        },
        {
          "name": "",
          "type": "uint256"
        },
        {
          "name": "",
          "type": "uint256"
        }
      ],
      "payable": false,
      "stateMutability": "view",
      "type": "function"
    },
    {
      "constant": true,
      "inputs": [],
      "name": "getOwnProfile",
      "outputs": [
        {
          "name": "",
          "type": "uint256"
        },
        {
          "name": "",
          "type": "string"
        },
        {
          "name": "",
          "type": "string"
        },
        {
          "name": "",
          "type": "uint256"
        },
        {
          "name": "",
          "type": "address"
        },
        {
          "name": "",
          "type": "uint256"
        },
        {
          "name": "",
          "type": "uint256"
        }
      ],
      "payable": false,
      "stateMutability": "view",
      "type": "function"
    },
    {
      "constant": true,
      "inputs": [],
      "name": "isRegistered",
      "outputs": [
        {
          "name": "",
          "type": "bool"
        }
      ],
      "payable": false,
      "stateMutability": "view",
      "type": "function"
    },
    {
      "constant": true,
      "inputs": [],
      "name": "totalJourneys",
      "outputs": [
        {
          "name": "",
          "type": "uint256"
        }
      ],
      "payable": false,
      "stateMutability": "view",
      "type": "function"
    }
  ],
  "bytecode": "0x60806040523480156200001157600080fd5b5062000051600060206040519081016040528060008152506020604051908101604052806000815250600062000208640100000000026401000000009004565b50620000e1653333333333336040805190810160405280601a81526020017f50696e6e657220556e64657267726f756e642053746174696f6e0000000000008152506040805190810160405280601b81526020017f4b696c6275726e20556e64657267726f756e642053746174696f6e000000000081525061024e62000208640100000000026401000000009004565b5062000171652345399999996040805190810160405280601d81526020017f57696c6c657364656e20556e64657267726f756e642053746174696f6e0000008152506040805190810160405280601e81526020017f4d616964612056616c6520556e64657267726f756e642053746174696f6e000081525061024e62000208640100000000026401000000009004565b5062000201654345782222226040805190810160405280601e81526020017f4265726d6f6e6473657920556e64657267726f756e642053746174696f6e00008152506040805190810160405280601b81526020017f4b696c6275726e20556e64657267726f756e642053746174696f6e000000000081525061024e62000208640100000000026401000000009004565b50620005bf565b60008060008060008873ffffffffffffffffffffffffffffffffffffffff1673ffffffffffffffffffffffffffffffffffffffff1681526020019081526020016000205491506000821415156200025e57600080fd5b6001805490506000808973ffffffffffffffffffffffffffffffffffffffff1673ffffffffffffffffffffffffffffffffffffffff1681526020019081526020016000208190555060018054809190600101620002bc91906200040a565b905060c0604051908101604052808781526020018681526020018581526020018873ffffffffffffffffffffffffffffffffffffffff168152602001428152602001428152506001828154811015156200031257fe5b906000526020600020906006020160008201518160000190805190602001906200033e9291906200043f565b5060208201518160010190805190602001906200035d9291906200043f565b506040820151816002015560608201518160030160006101000a81548173ffffffffffffffffffffffffffffffffffffffff021916908373ffffffffffffffffffffffffffffffffffffffff1602179055506080820151816004015560a082015181600501559050507f6bef7adacfc09f59a87202193c883458dd5621fccb6887d9dffb9c188994c0ba816040518082815260200191505060405180910390a18092505050949350505050565b8154818355818111156200043a57600602816006028360005260206000209182019101620004399190620004c6565b5b505050565b828054600181600116156101000203166002900490600052602060002090601f016020900481019282601f106200048257805160ff1916838001178555620004b3565b82800160010185558215620004b3579182015b82811115620004b257825182559160200191906001019062000495565b5b509050620004c291906200054b565b5090565b6200054891905b80821115620005445760008082016000620004e9919062000573565b600182016000620004fb919062000573565b60028201600090556003820160006101000a81549073ffffffffffffffffffffffffffffffffffffffff02191690556004820160009055600582016000905550600601620004cd565b5090565b90565b6200057091905b808211156200056c57600081600090555060010162000552565b5090565b90565b50805460018160011615610100020316600290046000825580601f106200059b5750620005bc565b601f016020900490600052602060002090810190620005bb91906200054b565b5b50565b61116980620005cf6000396000f30060806040526004361061008e576000357c0100000000000000000000000000000000000000000000000000000000900463ffffffff16806315e682051461009357806322366844146101f457806336ae14c8146102235780638df5a9fa1461027a578063bc40d5fb146103d4578063bc4e7007146104a1578063bd578c50146104cc578063fd1b515814610599575b600080fd5b34801561009f57600080fd5b506100be600480360381019080803590602001909291905050506106e4565b6040518088815260200180602001806020018781526020018673ffffffffffffffffffffffffffffffffffffffff1673ffffffffffffffffffffffffffffffffffffffff168152602001858152602001848152602001838103835289818151815260200191508051906020019080838360005b8381101561014c578082015181840152602081019050610131565b50505050905090810190601f1680156101795780820380516001836020036101000a031916815260200191505b50838103825288818151815260200191508051906020019080838360005b838110156101b2578082015181840152602081019050610197565b50505050905090810190601f1680156101df5780820380516001836020036101000a031916815260200191505b50995050505050505050505060405180910390f35b34801561020057600080fd5b50610209610938565b604051808215151515815260200191505060405180910390f35b34801561022f57600080fd5b50610264600480360381019080803573ffffffffffffffffffffffffffffffffffffffff169060200190929190505050610981565b6040518082815260200191505060405180910390f35b34801561028657600080fd5b506102a560048036038101908080359060200190929190505050610999565b6040518080602001806020018781526020018673ffffffffffffffffffffffffffffffffffffffff1673ffffffffffffffffffffffffffffffffffffffff168152602001858152602001848152602001838103835289818151815260200191508051906020019080838360005b8381101561032d578082015181840152602081019050610312565b50505050905090810190601f16801561035a5780820380516001836020036101000a031916815260200191505b50838103825288818151815260200191508051906020019080838360005b83811015610393578082015181840152602081019050610378565b50505050905090810190601f1680156103c05780820380516001836020036101000a031916815260200191505b509850505050505050505060405180910390f35b3480156103e057600080fd5b5061048b600480360381019080803590602001908201803590602001908080601f0160208091040260200160405190810160405280939291908181526020018383808284378201915050505050509192919290803590602001908201803590602001908080601f016020809104026020016040519081016040528093929190818152602001838380828437820191505050505050919291929080359060200190929190505050610b34565b6040518082815260200191505060405180910390f35b3480156104ad57600080fd5b506104b6610c33565b6040518082815260200191505060405180910390f35b3480156104d857600080fd5b50610583600480360381019080803590602001908201803590602001908080601f0160208091040260200160405190810160405280939291908181526020018383808284378201915050505050509192919290803590602001908201803590602001908080601f016020809104026020016040519081016040528093929190818152602001838380828437820191505050505050919291929080359060200190929190505050610c40565b6040518082815260200191505060405180910390f35b3480156105a557600080fd5b506105ae610c57565b6040518088815260200180602001806020018781526020018673ffffffffffffffffffffffffffffffffffffffff1673ffffffffffffffffffffffffffffffffffffffff168152602001858152602001848152602001838103835289818151815260200191508051906020019080838360005b8381101561063c578082015181840152602081019050610621565b50505050905090810190601f1680156106695780820380516001836020036101000a031916815260200191505b50838103825288818151815260200191508051906020019080838360005b838110156106a2578082015181840152602081019050610687565b50505050905090810190601f1680156106cf5780820380516001836020036101000a031916815260200191505b50995050505050505050505060405180910390f35b60006060806000806000806106f7610ed3565b600089118061070b57506001805490508911155b151561071657600080fd5b60018981548110151561072557fe5b906000526020600020906006020160c06040519081016040529081600082018054600181600116156101000203166002900480601f0160208091040260200160405190810160405280929190818152602001828054600181600116156101000203166002900480156107d85780601f106107ad576101008083540402835291602001916107d8565b820191906000526020600020905b8154815290600101906020018083116107bb57829003601f168201915b50505050508152602001600182018054600181600116156101000203166002900480601f01602080910402602001604051908101604052809291908181526020018280546001816001161561010002031660029004801561087a5780601f1061084f5761010080835404028352916020019161087a565b820191906000526020600020905b81548152906001019060200180831161085d57829003601f168201915b50505050508152602001600282015481526020016003820160009054906101000a900473ffffffffffffffffffffffffffffffffffffffff1673ffffffffffffffffffffffffffffffffffffffff1673ffffffffffffffffffffffffffffffffffffffff16815260200160048201548152602001600582015481525050905088816000015182602001518360400151846060015185608001518660a00151859550849450975097509750975097509750975050919395979092949650565b6000806000803373ffffffffffffffffffffffffffffffffffffffff1673ffffffffffffffffffffffffffffffffffffffff168152602001908152602001600020541415905090565b60006020528060005260406000206000915090505481565b6001818154811015156109a857fe5b9060005260206000209060060201600091509050806000018054600181600116156101000203166002900480601f016020809104026020016040519081016040528092919081815260200182805460018160011615610100020316600290048015610a545780601f10610a2957610100808354040283529160200191610a54565b820191906000526020600020905b815481529060010190602001808311610a3757829003601f168201915b505050505090806001018054600181600116156101000203166002900480601f016020809104026020016040519081016040528092919081815260200182805460018160011615610100020316600290048015610af25780601f10610ac757610100808354040283529160200191610af2565b820191906000526020600020905b815481529060010190602001808311610ad557829003601f168201915b5050505050908060020154908060030160009054906101000a900473ffffffffffffffffffffffffffffffffffffffff16908060040154908060050154905086565b6000806000610b41610938565b1515610b4c57600080fd5b6000803373ffffffffffffffffffffffffffffffffffffffff1673ffffffffffffffffffffffffffffffffffffffff168152602001908152602001600020549150600182815481101515610b9c57fe5b9060005260206000209060060201905085816000019080519060200190610bc4929190610f20565b5084816001019080519060200190610bdd929190610f20565b508381600201819055504281600501819055507fdb063512f00940756581e7b0b8efccfd498f53fc4f505706c2c535612945e505826040518082815260200191505060405180910390a181925050509392505050565b6000600180549050905090565b6000610c4e33858585610cd9565b90509392505050565b60006060806000806000806000610c6c610938565b1515610c7757600080fd5b6000803373ffffffffffffffffffffffffffffffffffffffff1673ffffffffffffffffffffffffffffffffffffffff168152602001908152602001600020549050610cc1816106e4565b97509750975097509750975097505090919293949596565b60008060008060008873ffffffffffffffffffffffffffffffffffffffff1673ffffffffffffffffffffffffffffffffffffffff168152602001908152602001600020549150600082141515610d2e57600080fd5b6001805490506000808973ffffffffffffffffffffffffffffffffffffffff1673ffffffffffffffffffffffffffffffffffffffff1681526020019081526020016000208190555060018054809190600101610d8a9190610fa0565b905060c0604051908101604052808781526020018681526020018581526020018873ffffffffffffffffffffffffffffffffffffffff16815260200142815260200142815250600182815481101515610ddf57fe5b90600052602060002090600602016000820151816000019080519060200190610e09929190610fd2565b506020820151816001019080519060200190610e26929190610fd2565b506040820151816002015560608201518160030160006101000a81548173ffffffffffffffffffffffffffffffffffffffff021916908373ffffffffffffffffffffffffffffffffffffffff1602179055506080820151816004015560a082015181600501559050507f6bef7adacfc09f59a87202193c883458dd5621fccb6887d9dffb9c188994c0ba816040518082815260200191505060405180910390a18092505050949350505050565b60c060405190810160405280606081526020016060815260200160008152602001600073ffffffffffffffffffffffffffffffffffffffff16815260200160008152602001600081525090565b828054600181600116156101000203166002900490600052602060002090601f016020900481019282601f10610f6157805160ff1916838001178555610f8f565b82800160010185558215610f8f579182015b82811115610f8e578251825591602001919060010190610f73565b5b509050610f9c9190611052565b5090565b815481835581811115610fcd57600602816006028360005260206000209182019101610fcc9190611077565b5b505050565b828054600181600116156101000203166002900490600052602060002090601f016020900481019282601f1061101357805160ff1916838001178555611041565b82800160010185558215611041579182015b82811115611040578251825591602001919060010190611025565b5b50905061104e9190611052565b5090565b61107491905b80821115611070576000816000905550600101611058565b5090565b90565b6110f291905b808211156110ee576000808201600061109691906110f5565b6001820160006110a691906110f5565b60028201600090556003820160006101000a81549073ffffffffffffffffffffffffffffffffffffffff0219169055600482016000905560058201600090555060060161107d565b5090565b90565b50805460018160011615610100020316600290046000825580601f1061111b575061113a565b601f0160209004906000526020600020908101906111399190611052565b5b505600a165627a7a7230582016ada90f1ecb19ca873df94b42d3a2c609f2d64195a28cd10bfc492bea8382e90029",
  "source": "pragma solidity ^0.4.21;\n\n\ncontract Journeys {\n    // data structure that stores a journey\n    struct Journey {\n        string from;\n        string to;\n        uint endingFare;\n        address walletAddress;\n        uint createdAt;\n        uint updatedAt;\n    }\n\n    // it maps the journey's wallet address with the journey ID\n    mapping (address => uint) public journeysIds;\n\n    // Array of Journey that holds the list of journeys and their details\n    Journey[] public journeys;\n\n    // event fired when a new journey is registered\n    event newJourneyRegistered(uint id);\n\n    // event fired when the journey is updated\n    event journeyUpdateEvent(uint id);\n\n\n\n    // Modifier: check if the caller of the smart contract is registered\n    modifier checkSenderIsRegistered {\n    \trequire(isRegistered());\n    \t_;\n    }\n\n\n\n    /**\n     * Constructor function\n     */\n    constructor() public {\n        // NOTE: the first journey MUST be empty\n        addJourney(0x0, \"\", \"\", 0);\n\n        // Some dummy data\n        addJourney(0x333333333333, \"Pinner Underground Station\", \"Kilburn Underground Station\", 590);\n        addJourney(0x234539999999, \"Willesden Underground Station\", \"Maida Vale Underground Station\", 590);\n        addJourney(0x434578222222, \"Bermondsey Underground Station\", \"Kilburn Underground Station\", 590);\n    }\n\n\n\n    /**\n     * Function to register a new journey.\n     *\n     * @param from   Point of Origin\n     * @param to     Destination\n     * @param endingFare Ending Fare\n     */\n    function registerJourney(string from, string to, uint endingFare) public returns(uint)\n    {\n    \treturn addJourney(msg.sender, from, to, endingFare);\n    }\n\n\n\n    /**\n     * Add a new journey. This function must be private because a journey\n     * cannot insert another journey on behalf of someone else.\n     *\n     * @param wAddr \t\tAddress wallet of the journey\n     * @param from\t\t    Point of origin\n     * @param to\t\t    Destination \n     * @param endingFare\tending Fare\n    */\n\n    function addJourney(address wAddr, string from, string to, uint endingFare) private\n    returns(uint)\n    {\n        // checking if the journey is already registered\n        uint journeyId = journeysIds[wAddr];\n        require (journeyId == 0);\n\n        // associating the journey wallet address with the new ID\n        journeysIds[wAddr] = journeys.length;\n        uint newJourneyId = journeys.length++;\n\n        // storing the new journey details\n        journeys[newJourneyId] = Journey({\n            from: from,\n            to: to,\n            endingFare: endingFare,\n            walletAddress: wAddr,\n            createdAt: now,\n            updatedAt: now\n        });\n\n        // emitting the event that a new journey has been registered\n        emit newJourneyRegistered(newJourneyId);\n\n        return newJourneyId;\n    }\n\n\n    /**\n     * Update the journey confirmation of the caller of this method.\n     * Note: the journey can modify only his own confirmation.\n     *\n     * @param newFrom\t    The new journey's displaying from\n     * @param newTo \t    The new journey's to\n     * @param newendingFare The new journey's endingFare\n     *\n     */\n    function updateJourney(string newFrom, string newTo, uint newendingFare) checkSenderIsRegistered public\n    returns(uint)\n    {\n    \t// A journey can modify only their own confirmation.\n    \tuint journeyId = journeysIds[msg.sender];\n\n    \tJourney storage journey = journeys[journeyId];\n\n    \tjourney.from = newFrom;\n    \tjourney.to = newTo;\n        journey.endingFare = newendingFare;\n    \tjourney.updatedAt = now;\n\n    \temit journeyUpdateEvent(journeyId);\n\n    \treturn journeyId;\n    }\n\n\n    /**\n     * Get the journey's confirmation information.\n     *\n     * @param id \tThe ID of the journey stored on the blockchain.\n     */\n    function getJourneyById(uint id) public view\n    returns(\n    \tuint,\n    \tstring,\n    \tstring,\n        uint,\n    \taddress,\n    \tuint,\n    \tuint\n    ) {\n    \t// checking if the ID is valid\n    \trequire( (id > 0) || (id <= journeys.length) );\n\n    \tJourney memory i = journeys[id];\n\n    \treturn (\n    \t\tid,\n    \t\ti.from,\n    \t\ti.to,\n            i.endingFare,\n    \t\ti.walletAddress,\n    \t\ti.createdAt,\n    \t\ti.updatedAt\n    \t);\n    }\n\n    /**\n     * Return the confirmation information of the caller.\n     */\n    function getOwnProfile() checkSenderIsRegistered public view\n    returns(\n    \tuint,\n    \tstring,\n    \tstring,\n        uint,\n    \taddress,\n    \tuint,\n    \tuint\n    ) {\n    \tuint id = journeysIds[msg.sender];\n\n    \treturn getJourneyById(id);\n    }\n\n\n\n\n    /**\n     * Check if the journey that is calling the smart contract is registered.\n     */\n    function isRegistered() public view returns (bool)\n    {\n    \treturn (journeysIds[msg.sender] != 0);\n    }\n\n\n\n    /**\n     * Return the number of total registered journeys.\n     */\n    function totalJourneys() public view returns (uint)\n    {\n        return journeys.length;\n    }\n\n}",
  "sourcePath": "/Users/yameste/Sites/blocktrain-dapp/contracts/Journeys.sol",
  "compiler": {
    "name": "solc",
    "version": "0.4.24+commit.e67f0147.Emscripten.clang"
  },
  "schemaVersion": "2.0.1",
  "updatedAt": "2020-01-27T09:51:57.005Z"
}